:100000000C946E000C9496000C9496000C94F104E1
:100010000C94F1040C94F1040C9496000C9496004A
:100020000C9496000C9496000C9496000C949600F8
:100030000C9496000C9496000C9496000C949600E8
:100040000C94BF190C9496000C94B61C0C94E81CEC
:100050000C9496000C9496000C9496000C949600C8
:100060000C9496000C9496007C3C3E5E2B3D3F2FFA
:100070005B5D3B2C2A225C000000000800020100AE
:100080000003040700000000000000000102040853
:1000900010204080010204081020010204081020F2
:1000A000040404040404040402020202020203031E
:1000B00003030303000000002300260029000000C2
:1000C0000000250028002B0000000000240027006D
:1000D0002A00CB029E0AE30D181DD80211241FBE70
:1000E000CFEFD8E0DEBFCDBF11E0A0E0B1E0E4EE9D
:1000F000F5E402C005900D92AC3DB107D9F725E0BB
:10010000ACEDB1E001C01D92A535B207E1F710E0FA
:10011000CAEDD0E004C02297FE010E942820C23D13
:10012000D107C9F70E94A21F0C94E5220C9400008D
:10013000CF92DF92EF92FF920F931F93E82FF92F48
:1001400005C0015011092109310961F190819623FF
:100150009417B9F305C0015011092109310911F1B2
:10016000908196239413F7CFC12CD12CE12CF12C44
:100170000AC08FEFC81AD80AE80AF80A0C151D053C
:100180002E053F0579F080818623841791F36C2D2D
:100190007D2D8E2D9F2D1F910F91FF90EF90DF9061
:1001A000CF90089560E070E080E090E01F910F91A3
:1001B000FF90EF90DF90CF9008950F931F93CF9310
:1001C000DF93EC0120E432E44FE050E061E084E0B2
:1001D0000E94451B8B019C010558134021093109E0
:1001E000043711402105310518F46AE071E01EC0A2
:1001F0008B019C010B5F1440210931090937114023
:100200002105310518F460E171E010C0DC01CB017B
:1002100084579640A109B1098A3A9140A105B105D8
:1002200018F469E171E002C060E271E0CE010E9461
:100230003F1ECE01DF91CF911F910F910895E4EE03
:10024000F1E080E09191890F91E0EE3EF907D1F75E
:10025000982F919581E02091EE01291380E0089577
:10026000CF93DF93EC016091DC017091DD016F5F52
:100270007F4F7093DD016093DC014AE00E94FB1E1A
:10028000CE01DF91CF910895BF92CF92DF92EF928E
:10029000FF920F931F93CF93DF93CDB7DEB72C97C9
:1002A0000FB6F894DEBF0FBECDBF7C016FEC71E0DE
:1002B0000E943F1E01E010E0CC24C394D12C4AE000
:1002C000B801CE0107960E94CF1E64E271E0CE0114
:1002D00001960E943F1EBE01695F7F4FCE010196CD
:1002E0000E94661F6CE271E00E94791FFC01608130
:1002F000718186E592E00E94930AB82ECE010196A4
:100300000E94D11DCE0107960E94D11D0F5F1F4F85
:10031000B1106801093C110591F64AE0B601CE0121
:1003200007960E94CF1E64E271E0CE0101960E9402
:100330003F1EBE01695F7F4FCE0101960E94661F7E
:100340006CE271E00E94791FBC01C7010E948B1E04
:10035000CE0101960E94D11DCE0107960E94D11DAB
:10036000C7012C960FB6F894DEBF0FBECDBFDF914C
:10037000CF911F910F91FF90EF90DF90CF90BF90A2
:100380000895CF93DF9300D000D000D0CDB7DEB773
:1003900060E084E00E94D61A26E040E855E260E082
:1003A00070E084EB94E00E94541C40E855E260E069
:1003B00070E08FEE91E00E94F40561E371E084EB60
:1003C00094E00E94A71D6AE086E592E00E94EC0896
:1003D000811107C069E471E084EB94E00E94BF1DC5
:1003E00015C065E671E084EB94E00E94BF1DCE016C
:1003F00001960E944401BE016F5F7F4F8EED91E038
:100400000E94AB1ECE0101960E94D11D26960FB60A
:10041000F894DEBF0FBECDBFDF91CF910895AF92AC
:10042000BF92CF92DF92EF92FF920F931F93CF93E1
:10043000DF93CDB7DEB76E970FB6F894DEBF0FBE71
:10044000CDBF8C016FEC71E00E943F1E0E94091A23
:10045000683E23E072078105910540F4FB01C12C41
:10046000D12CE12CF12CA12CB12C24C028EE33E0AE
:1004700040E050E00E94DA1F5901FB012C333105A6
:1004800090F02CE330E0C501B9010E94B21F7B015E
:100490005C016C33710560F0CB01B9010E94B21FA1
:1004A0006B017C0107C0C12CD12CE12CF12C02C0C6
:1004B000C12CD12C4AE0BF01CE0101960E94FB1E47
:1004C0004AE0B501CE0107960E94FB1E4AE0B70143
:1004D000CE010D960E94FB1E4AE0B601CE01439666
:1004E0000E94FB1EB801CE0149960E94A21E67E73A
:1004F00071E0CE0149960E94791FBE016D5E7F4F6B
:100500000E94661F69E771E00E94791FBE01635F68
:100510007F4F0E94661F69E771E00E94791FBE014C
:10052000695F7F4F0E94661F69E771E00E94791F33
:10053000BE016F5F7F4F0E94661F62E271E00E9402
:10054000791FBC01C8010E948B1ECE0149960E94F2
:10055000D11DCE0143960E94D11DCE010D960E9461
:10056000D11DCE0107960E94D11DCE0101960E9499
:10057000D11DC8016E960FB6F894DEBF0FBECDBF79
:10058000DF91CF911F910F91FF90EF90DF90CF906F
:10059000BF90AF90089520E049E068E08FEE91E0D1
:1005A0000E94C4056FEC71E08EED91E00C943F1E4B
:1005B0008EED91E00E94D11D8FEE91E00C946B05C1
:1005C000EF92FF920F931F93CF93DF93CDB7DEB7D8
:1005D0002C970FB6F894DEBF0FBECDBF7C016FEC39
:1005E00071E0CE0107960E943F1E8FEE91E00E94BF
:1005F0009A04892BD9F460E88FEE91E00E942D04D3
:1006000066E08FEE91E00E942D0463E08FEE91E0B2
:100610000E942D0467E78FEE91E00E942D0465E0B3
:1006200070E080E090E00E94381ADFCF00E010E038
:100630008FEE91E00E940C04F801EC51FE4F808394
:100640000115110551F491E080E02091E40120387A
:1006500009F090E0092F182F02C00F5F1F4F62E0D2
:1006600070E080E090E00E94381A0B30110504F32E
:100670000E941F01882311F107EE11E0F80161913A
:100680008F01CE0107960E94531FF1E00E3E1F0717
:10069000A9F7BE01695F7F4FCE0101960E94A21E9D
:1006A00060E0CE0101960E94931FBC01C7010E9429
:1006B000A21ECE0101960E94D11D05C06BE771E01C
:1006C000C7010E943F1ECE0107960E94D11DC7019F
:1006D0002C960FB6F894DEBF0FBECDBFDF91CF9141
:1006E0001F910F91FF90EF900895CF93DF93CDB7B7
:1006F000DEB7E9970FB6F894DEBF0FBECDBF6FEC43
:1007000071E0CE01C4960E943F1ECE0101960E9468
:10071000E002CE014C960E940F02CE0188960E9404
:10072000DD00CE018E960E943001BE01625D7F4FDA
:10073000CE0182960E94A21EBE01685D7F4FCE014F
:1007400082960E94661FBE01645E7F4F0E94661FF4
:10075000BE016F5F7F4F0E94661FBC01CE01C49631
:100760000E948B1ECE0182960E94D11DCE018E96D4
:100770000E94D11DCE0188960E94D11DCE014C96BB
:100780000E94D11DCE0101960E94D11D4091DE0133
:100790005091DF0123E166E572E0CE0101960E94EF
:1007A000050ACE0101960E94EA07882399F0BE014E
:1007B0006C5C7F4FCE0101960E94AD1DCE0101966B
:1007C0000E94D807BE016C5C7F4F84EB94E00E94CE
:1007D000AD1D15C064E871E0CE014C960E943F1E2D
:1007E0006EED71E0CE014C960E94661FBC0184EB59
:1007F00094E00E94AD1DCE014C960E94D11DCE0109
:10080000C4960E94D11DE9960FB6F894DEBF0FBEC4
:10081000CDBFDF91CF9108952091500230915102C8
:1008200028173907B9F490910E0280910F0298179A
:1008300089F0E0910E02F0E0E05FFD4F80812091B1
:100840000E0230E02F5F3F4F2F73332720930E02AD
:1008500090E008958FEF9FEF08951F93CF93DF935C
:10086000DC015C968D919C915D97009749F481E045
:1008700090E013969C938E93129780E090E03BC09B
:100880005196ED91FC91529750962C915097322FA2
:1008900030951FB75E964C915E9741FB772770F9B4
:1008A00041FD6095F8944081772311F0422B01C0FF
:1008B00043234083EC012197F1F748E0508160FF2A
:1008C00002C0522B01C053235083EC012197F1F752
:1008D0006695415099F78081772311F0832301C0F9
:1008E000822B80831FBF5C968D919C915D970197B1
:1008F000F1F781E090E0DF91CF911F910895089585
:1009000020915002309151022817390781F49091BB
:100910000E0280910F02981751F0E0910E02F0E064
:10092000E05FFD4F8081992787FD909508958FEFB7
:100930009FEF0895209150023091510228173907F6
:1009400071F480910F0220910E0290E0805C9F4F25
:10095000821B910960E470E00E94C61F089580E048
:1009600090E00895E0915002F0915102E817F907E4
:1009700069F4A389B4899C918589809589238C9396
:10098000109251021092500281E0089580E0089583
:10099000CF93DF93EC018A8D9B8D892BF1F08091B1
:1009A0005002909151028C179D07B9F0009711F0F9
:1009B0000E94B2048E8D8E7F8E8F10920F02109245
:1009C0000E02D0935102C0935002EB89FC898081C2
:1009D0009D89892B808381E001C080E0DF91CF91E8
:1009E00008951F920F920FB60F9211242F933F93E9
:1009F0004F935F936F937F938F939F93AF93BF9327
:100A0000EF93FF93E0915002F0915102309709F477
:100A100051C0868DA685B785958581FF04C08C91D0
:100A2000892329F447C08C91892309F043C0A38905
:100A3000B4899C918589809589238C93868997892F
:100A40000197F1F7208D318DA685B785758558E022
:100A500040E0C9010197F1F7842F90E095958795C3
:100A6000482F6C91672309F04068515091F7868DAB
:100A700081FD409580910F0290E001968F73992738
:100A800020910E02281749F0A0910F02B0E0A05F5C
:100A9000BD4F4C9380930F0203C0868D8160868F7B
:100AA000828D938D0197F1F7A389B4898C919589F3
:100AB000892B8C93FF91EF91BF91AF919F918F9173
:100AC0007F916F915F914F913F912F910F900FBE4A
:100AD0000F901F90189527E931E0FC0131832083A6
:100AE0000C94B2041F93CF93DF93EC01162F6E8DFD
:100AF0006695617081E06827812F0E940F1B61E07D
:100B0000812F0E94D61A812F90E0FC01E457FF4FFD
:100B1000E491E88BFC01E056FF4FE491F0E0EE0F2A
:100B2000FF1FE254FF4F859194919A8B898BDF913F
:100B3000CF911F9108951F93CF93DF93EC01162F50
:100B400060E0812F0E94D61A8E8D81FD04C061E085
:100B5000812F0E940F1B1C87812F90E0FC01E4571E
:100B6000FF4FE491ED87FC01E056FF4FE491F0E088
:100B7000EE0FFF1FEC54FF4F859194919F878E8756
:100B8000DF91CF911F910895FF920F931F93CF9301
:100B9000DF93EC01F62E522F1B821A8208EE13E02F
:100BA00020E030E00C831D832E833F8387E991E0B2
:100BB000998388831F8A1E8A198E188E1B8E1A8E1F
:100BC0001D8E1C8E8E8D8E7F50FB81F98E8F642F33
:100BD000CE010E9472056F2DCE01DF91CF911F9142
:100BE0000F91FF900C949B05CF93DF93EC019A013A
:100BF000AB011B8E1A8E198E188E1F8A1E8A60E01A
:100C000079E08DE390E00E94FC1FC901243031059A
:100C100020F0B9016350710902C061E070E07D8F7E
:100C20006C8FEC85E63108F068C0B9017695679560
:100C30006431710518F06351710902C061E070E020
:100C40007F8B6E8B069718F0C901059702C081E073
:100C500090E0998F888FC901880F991F820F931F89
:100C600096958795969587958D30910510F00C9700
:100C700002C081E090E09B8F8A8F20916800E8306D
:100C800050F091E0EE3008F490E081E001C0880F70
:100C90009A95EAF701C084E0822B809368002C8546
:100CA000283038F02E3040F0263148F48CE690E0C1
:100CB00008C08DE690E005C08BE690E002C080E0C1
:100CC00090E09C8B8B8B283030F481E001C0880F42
:100CD0002A95EAF70DC0822F90E02E3010F4089785
:100CE00001C00E9791E001C0990F8A95EAF7892F0C
:100CF0008D8B8C8D9D8D0197F1F7CE01DF91CF917A
:100D00000C94C804CF93CFB7F89480915502811109
:100D100027C0EAEAF0E08491E6E9F0E09491E82F58
:100D2000F0E0EE0FFF1FE853FF4FA591B4918C91B7
:100D3000892321F461E08AE00E940F1B61E08AE0D0
:100D40000E94D61A8CB580618CBD8CB580648CBD38
:100D500061E08DE00E94D61A61E08BE00E94D61A15
:100D6000809155028F5F80935502CFBFCF91089538
:100D7000CF93DF931F92CDB7DEB76983DC01ED918E
:100D8000FC910280F381E02D41E050E0BE016F5FF5
:100D90007F4F09950F90DF91CF910895CF93DF9307
:100DA000EC01898D9A8D009759F0FC011382128213
:100DB0000E946413E98DFA8D22813381232B31F057
:100DC00081E090E09B838A8380E090E0DF91CF9187
:100DD0000895FC01818D928D009711F00C940411FF
:100DE0000895CF93DF931F92CDB7DEB741E050E077
:100DF000BE016F5F7F4F0E94150F019719F4898123
:100E000090E002C08FEF9FEF0F90DF91CF91089598
:100E1000FC01818D928D009711F00C94F1068FEFFB
:100E20009FEF08950F931F93CF93DF938C01FC01E5
:100E3000818D928D0097B9F00E94F106EC018F3FF1
:100E4000FFEF9F0799F0F801818D928DFC0142859B
:100E500053856485758541505109610971090E9466
:100E60006810CE0105C080E090E002C08FEF9FEFD8
:100E7000DF91CF911F910F910895CF92DF92EF9262
:100E8000FF920F931F93CF93DF93EC017B016A01D5
:100E90001B821A8208EE13E020E030E00C831D83F1
:100EA0002E833F8387EA91E0998388838DE190E0E8
:100EB0000E943B209A8F898F009779F02DE1F701EE
:100EC000DC0101900D922A95E1F74CE050E0B6016B
:100ED000CE010C960E945422188EDF91CF911F9163
:100EE0000F91FF90EF90DF90CF900895FC01138257
:100EF000128248EE53E060E070E0448355836683DD
:100F0000778387EA91E091838083128E118E148615
:100F10000895DC015996ED91FC915A97309729F08C
:100F2000628573858485958508956FEF7FEFCB018A
:100F30000895DC015996ED91FC915A97309729F06C
:100F40006389748985899689089560E070E0CB0192
:100F50000895CF92DF92EF92FF92CF93DF93EC014F
:100F6000898D9A8D892BD9F0CE010E9499076B014A
:100F70007C01CE010E948907A7019601261B370B31
:100F8000480B590BDA01C901811530E89307A10517
:100F9000B10538F08FEF9FE7A0E0B0E002C080E03D
:100FA00090E0DF91CF91FF90EF90DF90CF90089588
:100FB000CF93DF93EC01898D9A8D009741F00E94C9
:100FC0004B11898D9A8D0E94D3201A8E198EDF9134
:100FD000CF910895DC015996ED91FC915A97309785
:100FE00021F081E09581911101C080E008951F9367
:100FF000CF93DF93CDB7DEB76D970FB6F894DEBF12
:101000000FBECDBFAB011C821B8229EB31E03A83BE
:1010100029831E8221E0BC01CE0101960E947F122D
:1010200011E0811102C010E004C0CE0101960E94BF
:101030004B11812F6D960FB6F894DEBF0FBECDBF5A
:10104000DF91CF911F910895CF93DF93FB01208112
:101050003181FC01E20FF31FE081EF3211F42F5FC9
:101060003F4FDA01E0E0F0E0EC01C20FD31FC8818E
:10107000CF3249F0CC2339F031962F5F3F4FCD93DB
:10108000EC30F10589F7E40FF51F1082FC01E20F47
:10109000F31F40814F3211F42F5F3F4FFB0131832B
:1010A0002083FC01E20FF31F81E09081911101C0C8
:1010B00080E0DF91CF9108954F925F926F927F927F
:1010C0008F929F92AF92BF92CF92DF92EF92FF9258
:1010D0000F931F93CF93DF93CDB7DEB7C954D109D8
:1010E0000FB6F894DEBF0FBECDBF5C016B013A01B5
:1010F000490119A218A289EB91E09F8F8E8F1BA244
:101100001C821B829A8389831E822A961FAE1EAE82
:101110002A978B017E018EE1E80EF11C4424439452
:10112000AE01455C5F4FBE01685B7F4FC5010E9409
:101130002408582E482F44259401BE01655C7F4F3A
:10114000C801F3010995811108C00C151D0519F09E
:10115000C8010E944B1180E027C05520B9F021E062
:10116000AE01455C5F4FB801C7010E947F12582E47
:101170000C151D0599F0C8010E944B11552059F31B
:10118000902F812F8701E92EF82ECACF0C151D054F
:1011900019F0C8010E944B1181E006C08823D9F2E2
:1011A0008E010F5F1F4FECCFC75BDF4F0FB6F89478
:1011B000DEBF0FBECDBFDF91CF911F910F91FF908A
:1011C000EF90DF90CF90BF90AF909F908F907F90E7
:1011D0006F905F904F9008950F931F93CF93DF937D
:1011E000EC01462F61E00E94DB0B811102C080E020
:1011F0001DC08E01045F1F4F41E0BE01C8010E9467
:10120000AB18882359F0B801CE018A960E94C50E0A
:1012100091E0811101C090E0892F08C040E0BE013B
:10122000C8010E94AB18882311F3EDCFDF91CF9155
:101230001F910F910895FC01DB0112968D919C91F5
:1012400013979383828389EB91E091838083149633
:101250008C911497848315968C9115978583169697
:101260004D915D916D917C9119974683578360876D
:1012700071871A964D915D916D917C911D97428772
:101280005387648775871E964D915D916D917C9112
:10129000519746875787608B718B52968C915297E6
:1012A000828B53964D915D916D917C915697438BB6
:1012B000548B658B768B57964D915D916D917C919A
:1012C0005A97478B508F618F728F5B968D919C914F
:1012D0005C97948F838F08954F925F926F927F9265
:1012E0008F929F92AF92BF92CF92DF92EF92FF9236
:1012F0000F931F93CF93DF93CDB7DEB7C754D109B8
:101300000FB6F894DEBF0FBECDBF6C014A013901A4
:10131000665D7F4F5E018EE1A80EB11CC5010E9483
:101320001B091C821B8289EB91E09A8389831E82B0
:101330008401FE0131967F015A2C4B2C6FE270E044
:10134000C8010E9442220097E9F1F80120812F3262
:1013500019F40F5F1F4FF2CF801B8D3008F08CE027
:10136000A82EB12CA501B801CE01CB960E94542223
:10137000EBE3F0E0EC0FFD1FEA0DFB1D1082C7014F
:101380000E944B1121E0AE01455C5F4F652D742D2D
:10139000C7010E947F12811109C0F60113821282D7
:1013A00089EB91E091838083158216C00A0D1B1D85
:1013B000852D942D0E944B11C2015E2C4F2CE92EDD
:1013C000F82EBCCF08191909F30111830083652D8C
:1013D000742DC6010E941B09C601C95BDF4F0FB601
:1013E000F894DEBF0FBECDBFDF91CF911F910F915B
:1013F000FF90EF90DF90CF90BF90AF909F908F9035
:101400007F906F905F904F9008959F92AF92BF92A0
:10141000CF92DF92EF92FF920F931F93CF93DF93C0
:10142000CDB7DEB7C955D1090FB6F894DEBF0FBEF0
:10143000CDBF7C016B015A01922E9E01285A3F4F6D
:10144000CE01CB960E946C096A960EAD1FAD6A97CD
:101450000A0D1B1DF801808181110AC0BE01655C67
:101460007F4FCE0101960E941B0943EB51E041C022
:1014700019A218A289EB91E09F8F8E8F1BA2219653
:101480008FAD2197811104C0C7010E94760737C034
:101490008250823060F4B601665D7F4F292DA8012D
:1014A000CE014E960E947F12811110C0EDCF292DE2
:1014B000A801BE01655C7F4FCE014E960E947F124F
:1014C000882311F3CE01CB960E944B11892D867093
:1014D00041F049A95AA96BA97CA9CE014E960E9458
:1014E0006810BE01625E7F4FCE0101960E941B090B
:1014F000A801BE016F5F7F4FC7010E943D07C70172
:10150000C75ADF4F0FB6F894DEBF0FBECDBFDF91D5
:10151000CF911F910F91FF90EF90DF90CF90BF90F0
:10152000AF909F900895FB01BC01665D7F4F20E066
:1015300030E047EF57E0CF010C945C0810925B025B
:1015400010925C0210925F021092610282E090E0C1
:10155000A0E0B0E08093620290936302A0936402E3
:10156000B093650210927902109283021092820267
:1015700089EB91E090938102809380021092850222
:1015800008959FB7F894209154028091520221301F
:1015900019F48DBB9FBF08958FBF08952091540209
:1015A000222399F03FB7F89420915402213059F446
:1015B0002DB3209352024DB3209153022095242342
:1015C0002DBB3FBF02C0309352028CBD9DBD08951C
:1015D0008EBD00000DB407FEFDCF8EB508958FEFD0
:1015E0000C94E80A61E0FC0184810E940F1B809149
:1015F0009F02882339F010929F028091540281113A
:101600000C94C10A0895CF93DF93EC0180919F025F
:10161000811109C081E080939F028091A002909186
:10162000A1020E94CE0A60E08C81DF91CF910C94E0
:101630000F1BCF93DF93EC018E81882389F08F817C
:1016400098859C012F5F3F4F38872F8382309240CF
:1016500018F40E94EF0AF3CFCE010E94F20A1E8214
:10166000DF91CF910895673028F026E1FC012583B2
:1016700080E00895623081F030F4662359F06130E3
:10168000B1F480E515C0643059F040F0653079F46C
:1016900082E50EC080E505C081E503C081E508C094
:1016A00082E58093A00281E08093A102089583E502
:1016B0008093A0021092A10281E008950F931F93DE
:1016C000CF93DF93EB010E94091A8B010E94EF0A6E
:1016D0008F3F49F00E94091A601B710B6C177D0740
:1016E000A8F380E001C081E0DF91CF911F910F91BD
:1016F0000895CF92DF92FF920F931F93CF93DF93C2
:1017000000D000D0CDB7DEB76C01F62E29833A8326
:101710004B835C830E94190BC6010E94030B6CE291
:1017200071E0C6010E945E0B8F2D80640E94E80A62
:1017300008E110E05C814B813A812981DA01C9011D
:10174000002E04C0B695A795979587950A94D2F771
:1017500029833A834B835C830E94E80A085011096D
:1017600029813A814B815C81083F8FEF180731F75F
:10177000FF2029F0E8E0FE1621F08FEF03C085E995
:1017800001C087E80E94E80A10E00E94EF0AF60113
:10179000828787FF04C01F3F11F01F5FF6CF0F90B5
:1017A0000F900F900F90DF91CF911F910F91FF90AD
:1017B000DF90CF900895BF92CF92DF92EF92FF9289
:1017C0000F931F93CF93DF93EC01B62E1B861986E0
:1017D0001E821D824C830E94091A8B0161E08C815C
:1017E0000E94D61A61E08C810E940F1B0E94820623
:1017F00082E58093A0021092A1028091A0029091B4
:10180000A1020E94CE0A2AE0F22E8FEF0E94E80A7F
:10181000FA94D9F78091540281110E94C10ACE0135
:101820000E94030B20E030E0A90160E0CE010E949D
:10183000790BF82E8A8781E0F81649F00E94091A80
:10184000601B710B613D774068F381E04BC02AEA71
:1018500031E040E050E068E0CE010E94790B82FF69
:1018600002C0FB860DC094E0F92E0E94EF0A8A8721
:10187000FA94D9F78A3A11F082E034C082E08B877B
:101880008B85823031F4C12CD12CE12C80E4F82EF0
:1018900003C0C12CD12C760120E030E0A90167E320
:1018A000CE010E94790BA701960169E2CE010E9448
:1018B000790B8A87882349F00E94091A601B710BF3
:1018C000613D774048F388E00DC08B85823031F56B
:1018D00020E030E0A9016AE3CE010E94790B882361
:1018E00081F086E08D83CE010E94F20A80E0DF91D4
:1018F000CF911F910F91FF90EF90DF90CF90BF900D
:1019000008950E94EF0A807C803C11F483E08B876D
:101910000E94EF0A0E94EF0A0E94EF0ACE010E9485
:10192000F20A6B2DCE01DF91CF911F910F91FF90A5
:10193000EF90DF90CF90BF900C94330B0F931F93D9
:10194000CF93DF93EC010E94091A8B010E94EF0AEA
:101950008A878F3F49F40E94091A601B710B6D3210
:101960007140A0F38FE003C08E3F39F08DE08D838E
:10197000CE010E94F20A80E001C081E0DF91CF91A8
:101980001F910F910895CF92DF92EF92FF920F93E4
:101990001F93CF93DF93EC0169010115110509F441
:1019A00062C0C801820F931F8130924008F05DC071
:1019B0008E81882371F088819981AA81BB81481723
:1019C00059076A077B0729F48F819885C816D906BD
:1019D00010F5488359836A837B838B85833039F084
:1019E00039E0440F551F661F771F3A95D1F79A01CA
:1019F000AB0161E1CE010E94790B882319F083E0ED
:101A00008D8333C0CE010E949E0C882371F118860D
:101A10001F8281E08E838F8198858C159D0540F40F
:101A20000E94EF0A8F819885019698878F83F3CF64
:101A30006701E00EF11ECE14DF0431F00E94EF0AC0
:101A4000F60181936F01F7CF8F819885800F911FE9
:101A500098878F832985222319F08115924018F0E9
:101A6000CE010E94190B81E004C0CE010E94F20A4F
:101A700080E0DF91CF911F910F91FF90EF90DF9069
:101A8000CF900895EF92FF920F931F93790100E09A
:101A900012E020E030E00E94C30C1F910F91FF90F4
:101AA000EF900895CF92DF92EF92FF920F931F93E2
:101AB000CF93DF9300D0CDB7DEB78C01862F49835B
:101AC0005A830E94E80A4981C42E5A81D52EE12CFE
:101AD000F12CF60181916F010E94E80AFFEFEF1AE5
:101AE000FF0AE11482E0F806A1F78FEF0E94E80AEE
:101AF0008FEF0E94E80A0E94EF0AF80182878F7137
:101B0000853039F081E18583C8010E94F20A80E0C6
:101B100001C081E00F900F90DF91CF911F910F9145
:101B2000FF90EF90DF90CF9008950F931F93CF9386
:101B3000DF93EC018901411551056105710511F42F
:101B400082E132C08B85833039F089E0440F551F24
:101B5000661F771F8A95D1F79A01AB0168E1CE0124
:101B60000E94790B882311F084E01EC0A8016EEF5B
:101B7000CE010E94520D8823C1F068E572E0CE01CB
:101B80000E945E0B811102C085E10EC020E030E0B2
:101B9000A9016DE0CE010E94790B811104C00E9461
:101BA000EF0A882339F084E18D83CE010E94F20A86
:101BB00080E004C0CE010E94F20A81E0DF91CF9163
:101BC0001F910F91089580E58093A0021092A102C9
:101BD0000895CF93DF93EC019C012A5F3F4F41E0D2
:101BE00050E060E070E08B8D9C8D0E944017882350
:101BF000A1F04F89588D698D7A8D452B462B472B47
:101C000071F44E815F81688579854F8B588F698F1C
:101C10007A8F8C8180688C8302C080E001C081E073
:101C2000DF91CF910895CF92DF92EF92FF921F93B1
:101C3000CF93DF93EC010E94E90D811102C080E097
:101C40004BC0EB8DFC8DCE80DF80E884F98482E090
:101C5000C81AD108E108F108058404C0CC0CDD1CC9
:101C6000EE1CFF1C0A94D2F746855785608971895E
:101C7000C40ED51EE61EF71E148181E0C81AD108D5
:101C8000E108F108112361F0C701B601610F711D70
:101C9000811D911D0E948A15882389F21150F2CF6F
:101CA000EB8DFC8DC12C82E0D82EE12CF12C05842B
:101CB00004C0CC0CDD1CEE1CFF1C0A94D2F74B892F
:101CC0005C896D897E894C0D5D1D6E1D7F1D4B8B62
:101CD0005C8B6D8B7E8B81E0DF91CF911F91FF90AC
:101CE000EF90DF90CF900895CF93DF93EC01462FD4
:101CF0006E857F85888999890E944F15882341F0D8
:101D00008A8920E2829FC001112485559D4F02C01F
:101D100080E090E0DF91CF910895282FFB018BE0C8
:101D200030E231938150E9F7A22FB92F20E037E05C
:101D30009D91992319F19E3219F0E8E6F0E008C070
:101D40003A3011F128E03AE0F3CF31964917E1F04B
:101D500044914111FACF3217B8F04FED490F4E358B
:101D600098F441E0420FFB01E20FF11D2FE9290F2A
:101D70002A3108F490529083242FDACF81E0FB01BE
:101D80009081903209F480E008950F931F93CF93D0
:101D9000DF93EC018B018D81882311F080E040C03E
:101DA000FB0187898031B1F482E08D831F8A188E10
:101DB000198E1A8E408D518D60E070E095E0440FD1
:101DC000551F661F771F9A95D1F74B8B5C8B6D8BD8
:101DD0007E8B15C0803211F783E08D83FB01428D2D
:101DE000538D648D758D4F8B588F698F7A8F9E01BF
:101DF0002D5E3F4FC8010E943416882379F21C8F54
:101E00000B8F81E08C831E821F82188619861A86AA
:101E10001B861C861D861E861F86188A198A1A8AAA
:101E2000DF91CF911F910F9108952F923F924F9282
:101E30005F926F927F928F929F92AF92BF92CF925A
:101E4000DF92EF92FF920F931F93CF93DF93EC01FA
:101E50006B015A018D81811103C08FEF9FEFDAC0B2
:101E60008C8180FFFACF4B895C896D897E898A8558
:101E70009B85AC85BD852501612C712C8A019B0158
:101E8000081B190B2A0B3B0B0415150526053705F6
:101E900018F45A01A81AB90A25011E0126E0220EDB
:101EA000311C4114510409F47BC04A855B856C8563
:101EB0007D854A0181E09822ED818A019B01F9E04C
:101EC0003695279517950795FA95D1F78B8D9C8DAB
:101ED000E23051F4FC01628D738D848D958D600F1D
:101EE000711F821F931F3EC0FC0174807A94702280
:101EF00081149104C9F4711017C0452B462B472B50
:101F000049F48F89988DA98DBA8D8E839F83A88778
:101F1000B9870AC04E815F816885798591010E94E9
:101F2000B015882309F499CFEB8DFC8D6E817F81EC
:101F3000888599856250710981099109058404C0D9
:101F4000660F771F881F991F0A94D2F70685178599
:101F500020893189600F711F821F931F670D711DCA
:101F6000811D911D20E032E0281939093201241524
:101F7000350508F439012C8126FD04C06114F2E016
:101F80007F06A1F50091060110910701209108013B
:101F900030910901601771078207930719F426C071
:101FA000C50138C0760183019401AB01BC01809169
:101FB000A9029091AA020E94C30C882309F44DCF74
:101FC000C60CD71C04C0E81BF90BCE0EDF1E8A8599
:101FD0009B85AC85BD85860D971DA11DB11D8A878A
:101FE0009B87AC87BD87461857085BCF40E00E94AF
:101FF0004F15882309F431CFC40185559D4FD60173
:102000009C01260D371DFC01E217F307E1F2419117
:102010004D93FACFDF91CF911F910F91FF90EF90E9
:10202000DF90CF90BF90AF909F908F907F906F90F8
:102030005F904F903F902F900895FF920F931F93C2
:10204000CF93DF931F92CDB7DEB78C01FC01858162
:10205000823018F480E090E034C0F8014285538566
:1020600064857585A5E07695679557954795AA95FA
:10207000D1F7F42FFF70FF2E41E050E0BE016F5FFB
:102080007F4FC8010E94150F019719F4298130E094
:1020900002C02FEF3FEF2F3F3F4FE1F2F8014285A3
:1020A000538564857585415E5F4F6F4F7F4F4287D3
:1020B000538764877587F0E2FF9EC0011124855520
:1020C0009D4F0F90DF91CF911F910F91FF90089539
:1020D0004F925F926F927F92AF92BF92CF92DF92B8
:1020E000EF92FF920F931F93CF93DF93EC016A015E
:1020F0007B012D81222309F457C08B899C89AD89EE
:10210000BE8984179507A607B70708F44DC04EC0CF
:102110008A859B85AC85BD85EB8DFC8DE585F0E0E2
:102120003996AC01BD0141505109610971090E2E6A
:1021300004C076956795579547950A94D2F797010D
:102140008601015011092109310904C036952795EE
:1021500017950795EA95D2F704171507260737074D
:10216000B0F58F89988DA98DBA8D8E839F83A887AE
:10217000B987280139015E0186E0A80EB11C41141F
:1021800051046104710461F14E815F816885798534
:1021900095018B8D9C8D0E94B01591E0491A5108D4
:1021A000610871088111EBCF80E01FC02230C1F0BF
:1021B000C114D104E104F10409F0AACF1E821F82E8
:1021C000188619861A861B861C861D860DC0892BCB
:1021D0008A2B8B2B31F2041B150B260B370BC9CF27
:1021E000CA86DB86EC86FD8681E0DF91CF911F9168
:1021F0000F91FF90EF90DF90CF90BF90AF907F90C6
:102200006F905F904F9008950F931F93CF93DF933C
:10221000EC018D818823C9F18C8187FF30C061E09A
:10222000CE010E94740E8C01009779F18D8182306D
:1022300048F44B895C896D897E89F801448F558FFC
:10224000668F778F4F89588D698D7A8DF801538FFE
:10225000428F758B648BE091A202F091A3023097BC
:1022600059F0B8016A5E7F4FC80148960995F80198
:10227000808D918D938B828B8C818F778C83DF9176
:10228000CF911F910F910C94141580E0DF91CF91A5
:102290001F910F910895CF93DF93EC010E940411D9
:1022A000882319F01D8281E001C080E0DF91CF9189
:1022B00008954F925F926F927F92AF92BF92CF92AA
:1022C000DF92EF92FF920F931F93CF93DF9300D093
:1022D00000D0CDB7DEB75C016A017B01FC018581CE
:1022E0008130F1F4848181FF1BC0F50183899489D9
:1022F000A589B68984179507A607B70788F0892BA3
:102300008A2B8B2B09F479C0F501428453846484B1
:102310007584B701A601C5010E946810811102C031
:1023200080E06CC0F501838D948DC114D104E1046B
:10233000F10471F44789508D618D728D0E9455189A
:10234000882371F3F501178A108E118E128E3AC010
:10235000F50146815781608571859E012F5F3F4F52
:102360000E94B0158823E1F249815A816B817C81FA
:10237000F501838D948DFC012789203129F408EF24
:102380001FEF20E030E004C008EF1FEF2FEF3FE029
:102390004017510762077307A8F40E945518882355
:1023A00009F4BECFF50146815781608571850FEF35
:1023B0001FEF2FEF3FE0838D948D0E949F1688239F
:1023C00009F4AECFF501C38AD48AE58AF68A8481FE
:1023D00080688483C5010E940411882309F4A0CF7A
:1023E000B701A6014C145D046E047F0410F4B30120
:1023F000A201C5010E94681001C081E00F900F90FA
:102400000F900F90DF91CF911F910F91FF90EF9060
:10241000DF90CF90BF90AF907F906F905F904F9084
:102420000895FF920F931F93CF93DF93EC01F42E47
:1024300080E2689FF0011124E555FD4F838581718D
:1024400029F0842F827411F080E053C06A8B809150
:10245000060190910701A0910801B09109018E87B2
:102460009F87A88BB98B4489558960E070E0BA01D9
:1024700055274427028D138D20E030E0402B512B4F
:10248000622B732B4F8B588F698F7A8F838588715E
:1024900051F4048D158D268D378D0B8B1C8B2D8B58
:1024A0003E8B81E00CC0803179F69E012D5E3F4F5E
:1024B0008B8D9C8D0E943416882331F284E08D83AD
:1024C0008F2D8F708C831E821F82188619861A8624
:1024D0001B861C861D86F6FE0BC040E050E0BA014C
:1024E000CE01DF91CF911F910F91FF900C94591164
:1024F00081E0DF91CF911F910F91FF900895AF92EE
:10250000BF92CF92DF92EF92FF920F931F93CF93E0
:10251000DF93CDB7DEB72B970FB6F894DEBF0FBEB3
:10252000CDBF7C016B01CA01B22EF70125812111BB
:10253000B9C0BE016F5F7F4F0E948D0E882309F4E2
:10254000B1C0F601838D948DF701948F838FF601CE
:1025500016821782108611861286138614861586B7
:10256000A12CF601028513852485358583899489FC
:10257000A589B689081719072A073B07E8F545E03A
:1025800036952795179507954A95D1F70F70C6018F
:102590000E941D10009709F485C0FC0120812223B0
:1025A00011F0253EB9F4A1100EC0F701028B409145
:1025B0000601509107016091080170910901468759
:1025C0005787608B718BFC018081AA24A3948111B1
:1025D000C8CF12C04BE050E0BC01CE0101960E9472
:1025E0002C22892B09F0BDCF8B2D8073803309F409
:1025F00059C04B2D602F52C08B2D8271823109F052
:1026000051C0AA2041F061E0C7010E94740E8C0104
:10261000009779F447C0F6018581823009F442C001
:10262000C6010E94130E8823E9F1F701128A0BEA12
:1026300012E080E2F80111928A95E9F78BE0FE0141
:102640003196D80101900D928A95E1F7E091A202AE
:10265000F091A302309739F0B801625F7F4FC80153
:102660004096099509C081E298E2F801918B808B30
:1026700080E098E097878687F80180899189938B1D
:10268000828B918F808F86859785978B868B0E9412
:102690001415882339F04B2DF7016289C7010E9478
:1026A000111201C080E02B960FB6F894DEBF0FBE6A
:1026B000CDBFDF91CF911F910F91FF90EF90DF90F1
:1026C000CF90BF90AF9008952F923F924F925F921C
:1026D0006F927F928F929F92AF92BF92CF92DF9232
:1026E000EF92FF920F931F93CF93DF9300D000D010
:1026F0001F92CDB7DEB78C017B013A01DC01159644
:102700008C9115978130C9F414968C9181FF15C076
:1027100082FF1BC0F80143895489658976898285C7
:102720009385A485B58584179507A607B70769F033
:10273000C8010E946810811108C081E090E0F80192
:102740009383828380E090E046C1630180C0D8011A
:102750005B968D919C915C97FC01F481F150B501E1
:10276000A40129E076956795579547952A95D1F765
:10277000F423FD8321E09222FF2309F474C080E05A
:1027800092E08819990956018C159D0508F45C01A1
:10279000D8015B96ED91FC915C9716962D903D903B
:1027A0004D905C901997B2E02B1A310841085108FE
:1027B000058404C0220C331C441C551C0A94D2F717
:1027C00086859785A089B189280E391E4A1E5B1E11
:1027D000ED812E0E311C411C511CA114F2E0BF06EC
:1027E00009F088C08091060190910701A09108012D
:1027F000B091090182159305A405B50559F48FEF31
:102800009FEFDC018093060190930701A0930801DC
:10281000B09309019701B201A1018091A9029091A1
:10282000AA020E94950D882309F487CF9EEFF91A1A
:10283000CA18DB08F80182859385A485B5858A0DC1
:102840009B1DA11DB11D82879387A487B587D801E1
:102850001A968D909D90AD90BC901D97C114D10497
:1028600009F075CF8AC08114910409F088CF1696BB
:102870004D915D916D917C911997411551056105BF
:10288000710559F457968D919D910D90BC91A02D95
:102890000097A105B10541F521C09E012F5F3F4F73
:1028A0000E94B015882309F44ECF89819A81AB81AB
:1028B000BC81F801238D348DF9012789203129F459
:1028C00048EF5FEF60E070E004C048EF5FEF6FEF4C
:1028D0007FE084179507A607B70730F0C8010E946C
:1028E000E90D81114CCF29CFF80186839783A0870A
:1028F000B18745CF8114910429F5D8011A964D91DD
:102900005D916D917C911D9753968D919D910D9048
:10291000BC91A02D481759076A077B0798F00E94C1
:102920001415882309F409CF20920601309207017B
:1029300040920801509209018091A8028160809321
:10294000A80208C041E0C201B1010E944F158823CE
:1029500009F4F3CEC40185559D4FD7019C012A0D82
:102960003B1DFC01E217F30719F04D914193FACF9B
:10297000E81BF90BEE0EFF1E5BCF53968D919D91D8
:102980000D90BC91A02DF801248188159905AA0508
:10299000BB0538F4838A948AA58AB68A2068248382
:1029A0000CC08091A2029091A302892B31F0611496
:1029B000710419F02068F8012483D80114968C91D1
:1029C00083FD02C0C30107C0C8010E94041188230F
:1029D00009F4B3CEF7CF0F900F900F900F900F9098
:1029E000DF91CF911F910F91FF90EF90DF90CF90EB
:1029F000BF90AF909F908F907F906F905F904F901F
:102A00003F902F900895CF93DF931F92CDB7DEB7FD
:102A1000698341E050E0BE016F5F7F4F0E94641305
:102A20000F90DF91CF9108958091A802882399F1AA
:102A300040910601509107016091080170910901D0
:102A40002BEA32E08091A9029091AA020E94950D92
:102A5000882319F14091A4025091A5026091A60229
:102A60007091A702411551056105710591F02BEA9E
:102A700032E08091A9029091AA020E94950D8823CC
:102A800061F01092A4021092A5021092A602109278
:102A9000A7021092A80281E0089580E00895CF92E5
:102AA000DF92EF92FF92CF936B017C01C42F809154
:102AB000060190910701A0910801B09109018C15C0
:102AC0009D05AE05BF05D1F00E941415811102C00D
:102AD00080E01AC02BEA32E0B701A6018091A9027A
:102AE0009091AA020E94420D882391F3C0920601A0
:102AF000D0920701E0920801F09209018091A802AA
:102B00008C2B8093A80281E0CF91FF90EF90DF9013
:102B1000CF900895CF92DF92EF92FF926B017C01EC
:102B20000E9414158823B1F0EBEAF2E0119284E0E0
:102B3000EB3AF807D9F7C0920601D0920701E0926C
:102B40000801F09209018091A80281608093A80297
:102B500081E001C080E0FF90EF90DF90CF9008957A
:102B60008F929F92AF92BF92CF92DF92EF92FF929D
:102B70000F931F93CF93DF938C016A017B01E901CF
:102B8000FC0181859285A385B4850196A11DB11DA7
:102B900084179507A607B70710F480E058C0F8011E
:102BA00043895489658976898789803129F4BB27CF
:102BB000AF2D9E2D8D2D09C0D701C60127E0B695FA
:102BC000A795979587952A95D1F74C015D01840EBD
:102BD000951EA61EB71EC501B401809006019090F7
:102BE0000701A0900801B0900901681579058A05D0
:102BF0009B0589F4F8018789803199F4DD24EE245E
:102C0000FF24F601EE0FFF1FE555FD4F80819181F6
:102C1000A0E0B0E017C040E00E944F158111EACF5C
:102C2000BCCFE894C7F8DD24EE24FF24F601EE0FB4
:102C3000FF1FEE0FFF1FE555FD4F80819181A2819F
:102C4000B381BF7088839983AA83BB8381E0DF91BE
:102C5000CF911F910F91FF90EF90DF90CF90BF9099
:102C6000AF909F908F9008954F925F926F927F9256
:102C7000AF92BF92CF92DF92EF92FF920F931F938A
:102C8000CF93DF9300D000D0CDB7DEB78C0149835E
:102C90005A836B837C835901C12CD12C7601412C42
:102CA00042E0542E612C712C49815A816B817C81C8
:102CB0009E012F5F3F4FC8010E94B015882359F134
:102CC000D301C201F801058404C0880F991FAA1F0F
:102CD000BB1F0A94D2F7C80ED91EEA1EFB1E4981FB
:102CE0005A816B817C818789803129F488EF9FEF3D
:102CF000A0E0B0E004C088EF9FEFAFEFBFE048175F
:102D000059076A077B0780F2F501C082D182E2820F
:102D1000F38281E001C080E00F900F900F900F9040
:102D2000DF91CF911F910F91FF90EF90DF90CF90A7
:102D3000BF90AF907F906F905F904F9008954F92AB
:102D40005F926F927F928F929F92AF92BF92CF923B
:102D5000DF92EF92FF920F931F93CF93DF93EC01DB
:102D60006A017B0128013901423051056105710575
:102D700008F474C049855A856B857C854F5F5F4F29
:102D80006F4F7F4F4C155D056E057F0508F466C0DB
:102D90008B889C88AD88BE888F89803129F47727FD
:102DA0006F2D5E2D4D2D09C0B701A601E7E0769588
:102DB000679557954795EA95D1F7840E951EA61EFF
:102DC000B71E409106015091070160910801709172
:102DD000090184169506A606B70671F48F8980311D
:102DE00099F4DD24EE24FF24F601EE0FFF1FE555D4
:102DF000FD4F5182408218C040E0C501B4010E94DD
:102E00004F158111EBCF2AC0E894C7F8DD24EE24DA
:102E1000FF24F601EE0FFF1FEE0FFF1FE555FD4FDC
:102E200040825182628273828091A8028160809385
:102E3000A8028A89823080F08D819E81AF81B88519
:102E4000880D991DAA1DBB1D8093A4029093A50215
:102E5000A093A602B093A70281E001C080E0DF91B9
:102E6000CF911F910F91FF90EF90DF90CF90BF9087
:102E7000AF909F908F907F906F905F904F9008954C
:102E80002F923F924F925F926F927F929F92AF925A
:102E9000BF92CF92DF92EF92FF920F931F93CF9347
:102EA000DF93CDB7DEB760970FB6F894DEBF0FBEE5
:102EB000CDBF5C014D875E876F87788B1901D90183
:102EC0004D905D906D907C904114510461047104AB
:102ED00031F0BFEF4B1A5B0A6B0A7B0A10C0FC0192
:102EE0004080518062807380992493940D851E8563
:102EF0002F853889013011052105310509F0912C04
:102F0000D50119962D913D914D915C911C972F5FA4
:102F10003F4F4F4F5F4F29873A874B875C8773013D
:102F200062011D821E821F821886F50181859285AD
:102F3000A385B4850D811E812F8138850817190757
:102F40002A073B0708F056C029853A854B855C85E2
:102F50002C153D054E055F0550F4A2E0CA2ED12C7C
:102F6000E12CF12CB2E04B2E512C612C712C9E01E6
:102F70002F5F3F4FB701A601C5010E94B0158823FE
:102F8000C9F149815A816B817C81D701C6010196C3
:102F9000A11DB11D452B462B472B19F02C013D01DE
:102FA0000FC0AC01BD0144195509660977090D85AB
:102FB0001E852F853889401751076207730779F0FE
:102FC0002D813E814F8158852F5F3F4F4F4F5F4F7F
:102FD0002D833E834F8358876C017D01A6CF0FEF71
:102FE0001FEF2FEF3FE0B701A601C5010E949F161A
:102FF000811118C080E041C0D701C6010197A10925
:10300000B1098D839E83AF83B88797018601AC0198
:10301000BD01C5010E949F16882361F3CD80DE802B
:10302000EF80F8844C145D046E047F0428F3D10112
:103030004D915D916D917C91411551056105710531
:1030400099F4F10140825182628273829920A1F049
:10305000FFEF4F1A5F0A6F0A7F0AD5014D925D920A
:103060006D927C92139708C093018201C5010E9462
:103070009F168111E6CFBECF81E060960FB6F8941F
:10308000DEBF0FBECDBFDF91CF911F910F91FF909B
:10309000EF90DF90CF90BF90AF909F907F906F9018
:1030A0005F904F903F902F900895AF92BF92CF9234
:1030B000DF92EF92FF920F931F93CF93DF9300D095
:1030C00000D0CDB7DEB75C016A017B0182E090E001
:1030D000A0E0B0E0F50180839183A283B3839E01D9
:1030E0002F5F3F4FB701A601C5010E94B01588238D
:1030F00011F100E010E09801B701A601C5010E949E
:103100009F168823C1F0C980DA80EB80FC80F5012E
:103110008789803129F488EF9FEFA0E0B0E004C0F8
:1031200088EF9FEFAFEFBFE0C816D906EA06FB06AF
:10313000B0F281E001C080E00F900F900F900F90EF
:10314000DF91CF911F910F91FF90EF90DF90CF9083
:10315000BF90AF9008958F929F92AF92BF92CF92FF
:10316000DF92EF92FF920F931F93CF93DF93EC01C7
:10317000142F7093AA026093A902442341F14530B1
:1031800010F080E0EFC040E060E070E0CB010E9412
:103190004F158823B1F320E1129FF0011124E75A63
:1031A000FB4F80818F7769F784859585A685B785E4
:1031B00084369105A105B10520F3C084D184E28451
:1031C000F384C114D104E104F10421F4DACFC12C59
:1031D000D12C760140E0C701B6010E944F1588232B
:1031E00081F28091B6029091B7028115924049F622
:1031F0003091BB02332329F28091B9029091BA0237
:10320000892B09F4BECF2091B802222309F4B9CF4B
:103210003A8B2C831D8630E041E050E06D85062F0F
:10322000CA01062E02C0880F991F0A94E2F72817D8
:10323000390731F081E0860F8D87683078F3A1CFB0
:103240002091C1023091C2022115310519F040E0F0
:1032500050E008C02091CF023091D0024091D102BD
:103260005091D2022D833E834F8358878091B902BB
:103270009091BA0246015701880E991EA11CB11CFB
:103280008B8A9C8AAD8ABE8AE091BC02F091BD0215
:10329000F98FE88FA091BB02B0E00E941B20680D5F
:1032A000791D8A1D9B1D6A8F7B8F8C8F9D8F15E0EA
:1032B000EE0FFF1F1A95E1F7E150FE4FEF2FFF27AA
:1032C000E695DC01CB018E0F9F1FA11DB11D8E87DE
:1032D0009F87A88BB98B8090BE029090BF0281140B
:1032E000910419F0A12CB12C08C08090CB029090D1
:1032F000CC02A090CD02B090CE02A7019601281B6F
:10330000390B4A0B5B0BDA01C901880D991DAA1D07
:10331000BB1D04C0B695A795979587950A95D2F7DA
:1033200089879A87AB87BC87853F3FE09307A105D4
:10333000B10510F48CE014C0853F9F4FA105B10585
:1033400010F480E10DC08091D7029091D802A09135
:10335000D902B091DA028A8F9B8FAC8FBD8F80E249
:103360008F8B81E0DF91CF911F910F91FF90EF90B4
:10337000DF90CF90BF90AF909F908F9008951F9255
:103380000F920FB60F9211242F933F938F939F9319
:10339000AF93BF938091AC049091AD04A091AE0423
:1033A000B091AF043091AB0423E0230F2D3720F40C
:1033B0000196A11DB11D05C026E8230F0296A11D8F
:1033C000B11D2093AB048093AC049093AD04A09303
:1033D000AE04B093AF048091B0049091B104A09179
:1033E000B204B091B3040196A11DB11D8093B00445
:1033F0009093B104A093B204B093B304BF91AF9182
:103400009F918F913F912F910F900FBE0F901F9022
:1034100018952FB7F8946091AC047091AD04809129
:10342000AE049091AF042FBF08953FB7F8948091F8
:10343000B0049091B104A091B204B091B30426B548
:10344000A89B05C02F3F19F00196A11DB11D3FBFDC
:103450006627782F892F9A2F620F711D811D911D6C
:1034600042E0660F771F881F991F4A95D1F708958C
:103470008F929F92AF92BF92CF92DF92EF92FF9284
:103480006B017C010E94151A4B015C01C114D1042F
:10349000E104F104F1F00E94B11F0E94151A6819AD
:1034A00079098A099B09683E73408105910570F38B
:1034B00021E0C21AD108E108F10888EE880E83E005
:1034C000981EA11CB11CC114D104E104F10429F718
:1034D000DDCFFF90EF90DF90CF90BF90AF909F90A7
:1034E0008F900895789484B5826084BD84B581609E
:1034F00084BD85B5826085BD85B5816085BDEEE6FC
:10350000F0E0808181608083E1E8F0E010828081DA
:1035100082608083808181608083E0E8F0E0808148
:1035200081608083E1EBF0E0808184608083E0EB68
:10353000F0E0808181608083EAE7F0E08081846050
:1035400080838081826080838081816080838081AC
:10355000806880831092C1000895833081F028F440
:10356000813099F08230A1F008958730A9F0883039
:10357000B9F08430D1F4809180008F7D03C08091B8
:1035800080008F7780938000089584B58F7702C084
:1035900084B58F7D84BD08958091B0008F7703C07E
:1035A0008091B0008F7D8093B0000895CF93DF931A
:1035B00090E0FC01E457FF4F2491FC01E056FF4FDF
:1035C0008491882349F190E0880F991FFC01E8530A
:1035D000FF4FA591B49182549F4FFC01C591D491A6
:1035E0009FB7611108C0F8948C91209582238C9329
:1035F000888182230AC0623051F4F8948C91322F72
:10360000309583238C938881822B888304C0F8941F
:103610008C91822B8C939FBFDF91CF9108950F9354
:103620001F93CF93DF931F92CDB7DEB7282F30E0E3
:10363000F901E858FF4F8491F901E457FF4F1491C5
:10364000F901E056FF4F04910023C9F0882321F0CF
:1036500069830E94AD1A6981E02FF0E0EE0FFF1F31
:10366000E254FF4FA591B4919FB7F8948C916111EA
:1036700003C01095812301C0812B8C939FBF0F90B5
:10368000DF91CF911F910F9108950F931F93762F84
:1036900090E0FC01E457FF4F6491FC01E056FF4FBE
:1036A000E4917111762FF0E0EE0FFF1FEC54FF4F05
:1036B0008591949189019A013F70472F0E9498004B
:1036C000611571058105910531F06F5F7F4F8F4F57
:1036D0009F4F9F7003C060E070E0CB011F910F917E
:1036E0000895FC01818D228D90E0805C9F4F821BAC
:1036F00091098F7399270895FC01918D828D9817F8
:1037000031F0828DE80FF11D858D90E008958FEFE7
:103710009FEF0895FC01918D828D981761F0828D45
:10372000DF01A80FB11D5D968C91928D9F5F9F73F5
:10373000928F90E008958FEF9FEF08958EE09DE1C6
:10374000892B49F080E090E0892B29F00E940E1D22
:1037500081110C9400000895FC01848DDF01A80FF5
:10376000B11DA35ABF4F2C91848D90E001968F73A9
:103770009927848FA689B7892C93A089B1898C91C8
:1037800080648C93938D848D981306C00288F3898E
:10379000E02D80818F7D80830895CF93DF93EC01AE
:1037A000888D8823C9F0EA89FB89808185FD05C061
:1037B000A889B9898C9186FD0FC00FB607FCF5CF9B
:1037C000808185FFF2CFA889B9898C9185FFEDCFE3
:1037D000CE010E94AC1BE7CFDF91CF910895CF922D
:1037E000DF92FF920F931F93CF93DF931F92CDB77A
:1037F000DEB76C0181E0D60158968C9358975B96A2
:103800009C915B975C968C915C97981307C050963F
:10381000ED91FC915197808185FD2EC0F601038DBD
:1038200010E00F5F1F4F0F731127F02EF601848DEC
:10383000F81211C00FB607FCF9CFD6015096ED91E2
:10384000FC915197808185FFF1CFC60169830E9469
:10385000AC1B6981EBCF838DE80FF11DE35AFF4F5D
:103860006083D6015B960C935B975296ED91FC9129
:103870005397808180620CC0D6015696ED91FC91E1
:10388000579760835096ED91FC91519780818064A9
:10389000808381E090E00F90DF91CF911F910F9195
:1038A000FF90DF90CF900895BF92CF92DF92EF927A
:1038B000FF92CF93DF93EC016A017B01B22EE8897E
:1038C000F98982E08083411581EE58076105710511
:1038D000A1F060E079E08DE390E0A70196010E94FD
:1038E000DA1F2150310941095109569547953795FD
:1038F0002795211580E1380798F0E889F989108229
:1039000060E874E88EE190E0A70196010E94DA1F5A
:103910002150310941095109569547953795279509
:10392000EC85FD853083EE85FF852083188EEC893C
:10393000FD89B082EA89FB89808180618083EA8980
:10394000FB89808188608083EA89FB898081806827
:103950008083EA89FB8980818F7D8083DF91CF918D
:10396000FF90EF90DF90CF90BF9008951F920F923D
:103970000FB60F9211242F938F939F93EF93FF9382
:10398000E091C404F091C5048081E091CA04F091F3
:10399000CB0482FD12C090818091CD048F5F8F7324
:1039A0002091CE04821751F0E091CD04F0E0EC5468
:1039B000FB4F958F8093CD0401C08081FF91EF91E3
:1039C0009F918F912F910F900FBE0F901F90189580
:1039D0001F920F920FB60F9211242F933F934F9384
:1039E0005F936F937F938F939F93AF93BF93EF9367
:1039F000FF9384EB94E00E94AC1BFF91EF91BF9189
:103A0000AF919F918F917F916F915F914F913F9176
:103A10002F910F900FBE0F901F90189584EB94E09C
:103A20000E94711B21E0892B09F420E0822F089568
:103A30001092B7041092B60488EE93E0A0E0B0E0D4
:103A40008093B8049093B904A093BA04B093BB04D4
:103A500081EC91E09093B5048093B40485EC90E000
:103A60009093C1048093C00484EC90E09093C304CD
:103A70008093C20480EC90E09093C5048093C404CA
:103A800081EC90E09093C7048093C60482EC90E0B0
:103A90009093C9048093C80486EC90E09093CB0483
:103AA0008093CA041092CD041092CE041092CF04D9
:103AB0001092D0040895CF92DF92EF92FF920F936D
:103AC0001F93CF93DF937C016A01EB0100E010E0CC
:103AD0000C151D0571F06991D701ED91FC910190D4
:103AE000F081E02DC7010995892B19F00F5F1F4F59
:103AF000EFCFC801DF91CF911F910F91FF90EF9011
:103B0000DF90CF9008956115710581F0DB010D9074
:103B10000020E9F7AD0141505109461B570BDC016C
:103B2000ED91FC910280F381E02D099480E090E01A
:103B30000895DC01ED91FC91DB0114964D915C91AF
:103B400015976D917C910280F381E02D09940C947E
:103B5000831D6DEC71E00C94831D0F931F93CF9325
:103B6000DF93EC010E94991D8C01CE010E94A91DDA
:103B7000800F911FDF91CF911F910F9108950F93A7
:103B80001F93CF93DF93EC010E94831D8C01CE0124
:103B90000E94A91D800F911FDF91CF911F910F915E
:103BA0000895FC01808191810C94D320CF93DF9301
:103BB000EC0188819981009711F00E94D32019822D
:103BC00018821D821C821B821A82DF91CF91089578
:103BD0000F931F93CF93DF93EC018B016F5F7F4FA8
:103BE000888199810E946221009731F099838883AE
:103BF0001B830A8381E001C080E0DF91CF911F9198
:103C00000F910895CF93DF93EC0188819981892BDF
:103C100029F08A819B818617970760F4CE010E9464
:103C2000E81D882341F08C819D81892B19F4E8815E
:103C3000F981108281E0DF91CF910895EF92FF9298
:103C40000F931F93CF93DF93EC017B018A01BA019D
:103C50000E94021E811104C0CE010E94D61D07C021
:103C60001D830C83B701888199810E944D22CE016A
:103C7000DF91CF911F910F91FF90EF900895FC017C
:103C800011821082138212821582148261157105CD
:103C900059F0FB0101900020E9F7AF0141505109B3
:103CA000461B570B0C941E1E08950F931F93CF9322
:103CB000DF938C01EB01FC0180819181009799F0E9
:103CC000428153812C813D814217530750F0688116
:103CD00079810E944D228C819D81F8019583848396
:103CE00013C00E94D32088819981F8019183808339
:103CF0008A819B81938382838C819D819583848338
:103D0000198218821B821A821D821C82DF91CF9138
:103D10001F910F910895CF93DF93EC01FB0186175C
:103D2000970761F0608171816115710529F0448107
:103D300055810E941E1E02C00E94D61DCE01DF9139
:103D4000CF910895FC011182108213821282158294
:103D500014820C948B1ECF93DF93EC018617970788
:103D600011F00E94551ECE01DF91CF910895CF939F
:103D7000DF93EC016115710561F0FB0101900020FA
:103D8000E9F7AF0141505109461B570B0E941E1E17
:103D900002C00E94D61DCE01DF91CF9108950F93EE
:103DA0001F93CF93DF93CDB7DEB762970FB6F8942A
:103DB000DEBF0FBECDBF8C01CB01F8011182108296
:103DC000138212821582148250E0BE016F5F7F4F12
:103DD0000E946322BE016F5F7F4FC8010E94B71E21
:103DE00062960FB6F894DEBF0FBECDBFDF91CF91C4
:103DF0001F910F9108950F931F93CF93DF93CDB72A
:103E0000DEB761970FB6F894DEBF0FBECDBF8C0151
:103E1000CB01F80111821082138212821582148262
:103E200050E0BE016F5F7F4F0E947922BE016F5F3D
:103E30007F4FC8010E94B71E61960FB6F894DEBF8F
:103E40000FBECDBFDF91CF911F910F910895EF92DB
:103E5000FF920F931F93CF93DF93EC017B010C81B3
:103E60001D816115710511F480E016C041155105E1
:103E700091F0040F151FB8010E94021E8823A1F3C0
:103E8000288139818C819D81B701820F931F0E9407
:103E90004D221D830C8381E0DF91CF911F910F9103
:103EA000FF90EF900895CF93DF9300D0CDB7DEB7AA
:103EB00069831A8241E050E0BE016F5F7F4F0E942C
:103EC000271F0F900F90DF91CF910895CF93DF932D
:103ED000EC01FB0144815581608171810E94271FA3
:103EE000811103C0CE010E94D61DCE01DF91CF917A
:103EF0000895CF93DF93EC016115710569F0FB0123
:103F000001900020E9F7AF0141505109461B570BC2
:103F10000E94271F811103C0CE010E94D61DCE0131
:103F2000DF91CF910895CF93DF93EC010E94531F4F
:103F3000811103C0CE010E94D61DCE01DF91CF9129
:103F4000089508950E94721A0E94A11F0E94C10143
:103F5000CEE9DBE10E9475032097E1F30E949E1BEE
:103F6000F9CF0895AA1BBB1B51E107C0AA1FBB1FB5
:103F7000A617B70710F0A61BB70B881F991F5A95F5
:103F8000A9F780959095BC01CD01089597FB072E68
:103F900016F4009407D077FD09D00E94B21F07FCE9
:103FA00005D03EF4909581959F4F08957095619549
:103FB0007F4F0895A1E21A2EAA1BBB1BFD010DC065
:103FC000AA1FBB1FEE1FFF1FA217B307E407F507C9
:103FD00020F0A21BB30BE40BF50B661F771F881FA5
:103FE000991F1A9469F760957095809590959B013B
:103FF000AC01BD01CF010895052E97FB1EF400947E
:104000000E94132057FD07D00E94DA1F07FC03D03F
:104010004EF40C94132050954095309521953F4FC8
:104020004F4F5F4F089590958095709561957F4FA4
:104030008F4F9F4F08950E942C20A59F900DB49FF5
:10404000900DA49F800D911D11240895EE0FFF1F68
:104050000590F491E02D0994A29FB001B39FC00197
:10406000A39F700D811D1124911DB29F700D811DA4
:104070001124911D0895CF93DF938230910510F4A0
:1040800082E090E0E0915305F091540520E030E0AB
:10409000A0E0B0E0309739F14081518148175907CD
:1040A000B8F04817590771F482819381109729F06D
:1040B00013969C938E9312972CC0909354058093E3
:1040C000530527C02115310531F04217530718F069
:1040D000A901DB0101C0EF019A01BD01DF010280EE
:1040E000F381E02DD7CF21153105F9F0281B390BCD
:1040F0002430310580F48A819B816115710521F09E
:10410000FB019383828304C09093540580935305ED
:10411000FE01329644C0FE01E20FF31F819391939A
:1041200022503109398328833AC0209151053091BA
:104130005205232B41F42091020130910301309369
:104140005205209351052091000130910101211564
:10415000310541F42DB73EB740910401509105015E
:10416000241B350BE0915105F0915205E217F3073E
:10417000A0F42E1B3F0B2817390778F0AC014E5FD7
:104180005F4F2417350748F04E0F5F1F50935205BD
:10419000409351058193919302C0E0E0F0E0CF019C
:1041A000DF91CF910895CF93DF93009709F487C0F3
:1041B000FC01329713821282C0915305D0915405AD
:1041C000209781F420813181280F391F809151057A
:1041D000909152058217930779F5F0935205E09379
:1041E00051056DC0DE0120E030E0AE17BF0750F48E
:1041F00012964D915C9113979D014115510509F15E
:10420000DA01F3CFB383A28340815181840F951FDC
:104210008A179B0771F48D919C911197840F951FBC
:1042200002969183808312968D919C91139793832C
:1042300082832115310529F4F0935405E093530549
:104240003EC0D9011396FC93EE9312974D915D9168
:10425000A40FB51FEA17FB0779F480819181840FC1
:10426000951F0296D90111969C938E93828193811A
:1042700013969C938E931297E0E0F0E08A819B81E5
:10428000009719F0FE01EC01F9CFCE0102962881CA
:104290003981820F931F20915105309152052817C3
:1042A000390769F4309729F4109254051092530598
:1042B00002C013821282D0935205C0935105DF9140
:1042C000CF910895A0E0B0E0E8E6F1E20C94B222CC
:1042D000EC01CB01209719F40E943B20B8C0FE01ED
:1042E000E60FF71F9E0122503109E217F30708F489
:1042F000ACC0D9010D911C91119706171707B8F0A2
:104300000530110508F49FC0A80144505109461713
:10431000570708F498C002501109061B170B0193A8
:1043200011936D937C93CF010E94D3208CC05B01CD
:10433000A01AB10A4E01800E911EA0915305B091B2
:104340005405612C712C60E070E0109709F449C0AD
:10435000A815B905C9F5ED90FC901197670142E0E9
:10436000C40ED11CCA14DB0478F147018A189B08DB
:10437000640142E0C40ED11C1296BC9012971396B1
:10438000AC91B5E0CB16D10440F0B282A383918208
:104390008082D9018D939C9309C00E5F1F4F0E0D33
:1043A0001F1DF90111830083EB2DFA2F6115710593
:1043B00031F0DB011396FC93EE93129744C0F09317
:1043C0005405E09353053FC06D917C91119766169B
:1043D000770608F43B01BD0112960D90BC91A02D0B
:1043E000B4CF609151057091520568157905E9F4D3
:1043F00068167906D0F440910001509101014115F1
:10440000510541F44DB75EB760910401709105010B
:10441000461B570BE417F507C0F4F0935205E093E1
:104420005105F901918380830EC00E943B207C01DD
:10443000009759F0A801BE010E943922CE010E94C6
:10444000D320C70104C0CE0102C080E090E0CDB708
:10445000DEB7EEE00C94CE22FB01DC0104C08D91AE
:104460000190801921F441505040C8F7881B990BE6
:104470000895FB01DC0102C001900D9241505040B3
:10448000D8F70895FC018191861721F08823D9F788
:10449000992708953197CF010895FB01DC01019020
:1044A0000D920020E1F70895FB01DC0141505040DE
:1044B00048F001900D920020C9F701C01D924150B3
:1044C0005040E0F708954532510520F4423010F095
:1044D0000C946E22FB011082CB010895BB274A3059
:1044E00031F4992322F4BDE2909581959F4F0C946D
:1044F00085224532510520F4423010F00C9484227C
:10450000FB011082CB010895BB27FB015527AA2789
:10451000880F991FAA1FA41710F0A41B8395505150
:10452000B9F7A05DAA3308F0A95DA193009779F7C8
:10453000B111B1931192CB010C949E22DC01FC01CC
:10454000672F71917723E1F7329704C07C916D93C7
:1045500070836291AE17BF07C8F308952F923F9200
:104560004F925F926F927F928F929F92AF92BF9283
:10457000CF92DF92EF92FF920F931F93CF93DF932F
:10458000CDB7DEB7CA1BDB0B0FB6F894DEBF0FBE8C
:10459000CDBF09942A88398848885F846E847D84D9
:1045A0008C849B84AA84B984C884DF80EE80FD80DB
:1045B0000C811B81AA81B981CE0FD11D0FB6F89451
:1045C000DEBF0FBECDBFED01089510E0CAEDD0E013
:1045D00004C0FE010E9428202296CC3DD107C9F7D5
:0445E000F894FFCF7D
:1045E400000055058000FFFFFFFF5B4C4F575D0047
:1045F4005B4D4944444C455D005B484947485D0078
:104604005B3F5D00646174616C6F67002E74787445
:1046140000496E697469616C697A696E67205344F4
:1046240020636172642E2E2E0043617264206661E1
:10463400696C65642C206F72206E6F7420707265D3
:1046440073656E74006361726420696E6974696174
:104654006C697A65642E005B003A004552525641FB
:104664004C5545006572726F72206F70656E696E8D
:10467400672000000000002D045B1D9A040C0480D8
:10468400047F0400000000B806CE06A9070807123C
:1046940007E9062F000000000003155B1D00000061
:1046A40000EF1B5B1D711B8A1B7C1BCD1B0D0A00BD
:0C46B4006E616E00696E66006F76660035
:00000001FF
